:020000040800F2
:1000000000500020650900080109000809090008DE
:100010001109000819090008210900080000000062
:100020000000000000000000000000002909000896
:100030003509000800000000410900084D090008CA
:10004000AD090008AD090008AD090008AD090008B8
:10005000AD090008AD090008AD090008AD090008A8
:10006000AD090008AD090008AD090008AD09000898
:10007000AD090008AD090008AD090008AD09000888
:10008000AD090008AD090008AD090008AD09000878
:10009000AD090008AD090008AD090008AD09000868
:1000A000AD090008AD090008AD090008AD09000858
:1000B000AD090008AD090008AD090008AD09000848
:1000C000AD090008AD090008AD090008AD09000838
:1000D000AD090008AD090008AD090008AD09000828
:1000E000AD090008AD090008AD09000800000000D6
:1000F0000000000000000000000000000000000000
:0C01000000000000000000005FF808F1A3
:10010C0010B5054C237833B9044B13B10448AFF345
:10011C0000800123237010BD680000200000000047
:10012C000C1D000808B5034B1BB103490348AFF382
:10013C00008008BD000000006C0000200C1D0008B1
:10014C0080F0004002E000BF81F0004142001FBF80
:10015C005FEA410392EA030F7FEA226C7FEA236C89
:10016C006AD04FEA1262D2EB1363C1BFD21841407E
:10017C0048404140B8BF5B42192B88BF704710F014
:10018C00004F40F4000020F07F4018BF404211F0B7
:10019C00004F41F4000121F07F4118BF494292EA1F
:1001AC00030F3FD0A2F1010241FA03FC10EB0C004B
:1001BC00C3F1200301FA03F100F0004302D54942D8
:1001CC0060EB4000B0F5000F13D3B0F1807F06D385
:1001DC0040084FEA310102F10102FE2A51D2B1F17D
:1001EC00004F40EBC25008BF20F0010040EA030072
:1001FC007047490040EB0000013A28BFB0F5000FF2
:10020C00EDD2B0FA80FCACF1080CB2EB0C0200FAA7
:10021C000CF0AABF00EBC25052421843BCBFD040F6
:10022C001843704792F0000F81F4000106BF80F470
:10023C0000000132013BB5E74FEA41037FEA226C33
:10024C0018BF7FEA236C21D092EA030F04D092F0FE
:10025C00000F08BF0846704790EA010F1CBF002032
:10026C00704712F07F4F04D1400028BF40F000408F
:10027C00704712F100723CBF00F50000704700F0AF
:10028C00004343F0FE4040F4000070477FEA2262D6
:10029C0016BF08467FEA23630146420206BF5FEAA7
:1002AC00412390EA010F40F4800070474FF00003A7
:1002BC0004E000BF10F0004348BF40425FEA000C6E
:1002CC0008BF704743F0964301464FF000001CE016
:1002DC0050EA010208BF70474FF000030AE000BF6C
:1002EC0050EA010208BF704711F0004302D54042AA
:1002FC0061EB41015FEA010C02BF8446014600201C
:10030C0043F0B64308BFA3F18053A3F50003BCFA36
:10031C008CF2083AA3EBC25310DB01FA02FC6344E3
:10032C0000FA02FCC2F12002BCF1004F20FA02F2EA
:10033C0043EB020008BF20F00100704702F12002DD
:10034C0001FA02FCC2F1200250EA4C0021FA02F23E
:10035C0043EB020008BF20EADC7070474FF0FF0C43
:10036C001CEAD0521EBF1CEAD15392EA0C0F93EA3E
:10037C000C0F6FD01A4480EA010C400218BF5FEAE0
:10038C0041211ED04FF0006343EA501043EA511153
:10039C00A0FB01310CF00040B1F5000F3EBF49004D
:1003AC0041EAD3715B0040EA010062F17F02FD2A51
:1003BC001DD8B3F1004F40EBC25008BF20F0010034
:1003CC00704790F0000F0CF0004C08BF49024CEA4B
:1003DC00502040EA51207F3AC2BFD2F1FF0340EADD
:1003EC00C250704740F400004FF00003013A5DDC4E
:1003FC0012F1190FDCBF00F000407047C2F100028F
:10040C00410021FA02F1C2F1200200FA02FC5FEA7B
:10041C00310040F1000053EA4C0308BF20EADC70C5
:10042C00704792F0000F00F0004C02BF400010F437
:10043C00000F013AF9D040EA0C0093F0000F01F0E4
:10044C00004C02BF490011F4000F013BF9D041EA06
:10045C000C018FE70CEAD15392EA0C0F18BF93EA08
:10046C000C0F0AD030F0004C18BF31F0004CD8D132
:10047C0080EA010000F00040704790F0000F17BFB9
:10048C0090F0004F084691F0000F91F0004F14D0FF
:10049C0092EA0C0F01D142020FD193EA0C0F03D157
:1004AC004B0218BF084608D180EA010000F000405A
:1004BC0040F0FE4040F40000704740F0FE4040F435
:1004CC00400070474FF0FF0C1CEAD0521EBF1CEAD4
:1004DC00D15392EA0C0F93EA0C0F69D0A2EB0302F2
:1004EC0080EA010C49024FEA402037D04FF080538C
:1004FC0043EA111143EA10130CF000408B4238BF51
:10050C005B0042F17D024FF4000C8B4224BF5B1A5E
:10051C0040EA0C00B3EB510F24BFA3EB510340EAAC
:10052C005C00B3EB910F24BFA3EB910340EA9C005A
:10053C00B3EBD10F24BFA3EBD10340EADC001B01CA
:10054C0018BF5FEA1C1CE0D1FD2A3FF650AF8B426E
:10055C0040EBC25008BF20F0010070470CF0004C7B
:10056C004CEA50207F32C2BFD2F1FF0340EAC250A6
:10057C00704740F400004FF00003013A37E792F067
:10058C00000F00F0004C02BF400010F4000F013AC5
:10059C00F9D040EA0C0093F0000F01F0004C02BFC0
:1005AC00490011F4000F013BF9D041EA0C0195E729
:1005BC000CEAD15392EA0C0F08D142027FF47DAFC2
:1005CC0093EA0C0F7FF470AF084676E793EA0C0FB2
:1005DC0004D14B023FF44CAF08466EE730F0004CB0
:1005EC0018BF31F0004CCAD130F000427FF45CAF40
:1005FC0031F000437FF43CAF5FE700BF4FF0FF3CAE
:10060C0006E000BF4FF0010C02E000BF4FF0010C00
:10061C004DF804CD4FEA40024FEA41037FEA226CC9
:10062C0018BF7FEA236C11D001B052EA530C18BFEB
:10063C0090EA010F58BFB2EB030088BFC81738BF50
:10064C006FEAE17018BF40F0010070477FEA226C3E
:10065C0002D15FEA402C05D17FEA236CE4D15FEA3A
:10066C00412CE1D05DF8040B704700BF844608466E
:10067C006146FFE70FB5FFF7C9FF002848BF10F12F
:10068C00000F0FBD4DF808EDFFF7F4FF0CBF012074
:10069C0000205DF808FB00BF4DF808EDFFF7EAFFFE
:1006AC0034BF012000205DF808FB00BF4DF808EDB9
:1006BC00FFF7E0FF94BF012000205DF808FB00BFAE
:1006CC004DF808EDFFF7D2FF94BF012000205DF834
:1006DC0008FB00BF4DF808EDFFF7C8FF34BF012041
:1006EC0000205DF808FB00BF4FEA4002B2F1FE4F5C
:1006FC000FD34FF09E03B3EB12620DD94FEA0023D8
:10070C0043F0004310F0004F23FA02F018BF4042B0
:10071C0070474FF00000704712F1610F01D1420297
:10072C0005D110F0004008BF6FF0004070474FF04B
:10073C000000704742000ED2B2F1FE4F0BD34FF0C7
:10074C009E03B3EB126209D44FEA002343F000433B
:10075C0023FA02F070474FF00000704712F1610F5E
:10076C0001D1420202D14FF0FF3070474FF0000030
:10077C00704700BF80B500AF00F014F900F014F81A
:10078C0000F04EF8064801F074FA022205490448BC
:10079C0001F04EF94FF47A7000F066F900BFFDE7F6
:1007AC000C000020BC7413BC80B590B000AF07F1F6
:1007BC00180328220021184601F076FA3B1D00226E
:1007CC001A605A609A60DA601A610223BB610123D5
:1007DC00BB621023FB6200237B6307F118031846EE
:1007EC0000F0E6FB0346002B01D000F04BF80F2382
:1007FC007B600023BB600023FB6000233B61002374
:10080C007B613B1D0021184600F054FE0346002B73
:10081C0001D000F037F800BF4037BD4680BD000066
:10082C0080B586B000AF07F1080300221A605A6049
:10083C009A60DA60114B9B69104A43F00403936190
:10084C000E4B9B6903F004037B607B680022FE2146
:10085C000B4800F095FBFE23BB600123FB600023DB
:10086C003B6102237B6107F108031946044800F041
:10087C0003FA00BF1837BD4680BD00BF0010024010
:10088C000008014080B400AF72B600BF00BFFDE7A6
:10089C0080B485B000AF154B9B69144A43F001033B
:1008AC009361124B9B6903F00103BB60BB680F4B58
:1008BC00DB690E4A43F08053D3610C4BDB6903F0C8
:1008CC0080537B607B680A4B5B68FB60FB6823F0A2
:1008DC00E063FB60FB6843F00073FB60044AFB6859
:1008EC00536000BF1437BD4680BC704700100240F7
:1008FC000000014080B400AF00BFFDE780B400AF42
:10090C0000BFFDE780B400AF00BFFDE780B400AFCF
:10091C0000BFFDE780B400AF00BFFDE780B400AFBF
:10092C0000BFBD4680BC704780B400AF00BFBD4661
:10093C0080BC704780B400AF00BFBD4680BC704720
:10094C0080B500AF00F074F800BF80BD80B400AF7C
:10095C0000BFBD4680BC7047FFF7F8FF0B480C4941
:10096C000C4A002302E0D458C4500433C4188C42FF
:10097C00F9D3094A094C002301E013600432A24266
:10098C00FBD301F099F9FFF7F5FE7047000000204A
:10099C0068000020501D000868000020880000201E
:1009AC00FEE7000080B500AF084B1B68074A43F018
:1009BC0010031360032000F02BF90F2000F008F84F
:1009CC00FFF766FF0023184680BD00BF00200240E1
:1009DC0080B582B000AF7860124B1A68124B1B784E
:1009EC0019464FF47A73B3FBF1F3B2FBF3F31846E9
:1009FC0000F035F90346002B01D001230EE07B6893
:100A0C000F2B0AD8002279684FF0FF3000F00BF959
:100A1C00064A7B681360002300E001231846083760
:100A2C00BD4680BD0000002008000020040000200E
:100A3C0080B400AF054B1B781A46054B1B6813445A
:100A4C00034A136000BFBD4680BC704708000020FD
:100A5C008400002080B400AF024B1B681846BD46D2
:100A6C0080BC70478400002080B584B000AF7860F3
:100A7C00FFF7F0FFB8607B68FB60FB68B3F1FF3FEA
:100A8C0005D00A4B1B781A46FB681344FB6000BF69
:100A9C00FFF7E0FF0246BB68D31AFA689A42F7D810
:100AAC0000BF00BF1037BD4680BD00BF080000204E
:100ABC0080B485B000AF78607B6803F00703FB60FF
:100ACC000C4BDB68BB60BA684FF6FF031340BB608E
:100ADC00FB681A02BB68134343F0BF6343F4003353
:100AEC00BB60044ABB68D36000BF1437BD4680BCF2
:100AFC00704700BF00ED00E080B400AF044BDB6832
:100B0C001B0A03F007031846BD4680BC704700BFA4
:100B1C0000ED00E080B483B000AF03463960FB7198
:100B2C0097F90730002B0ADB3B68DAB20C4997F9CE
:100B3C0007301201D2B20B4483F800230AE03B6861
:100B4C00DAB20849FB7903F00F03043B1201D2B26D
:100B5C000B441A7600BF0C37BD4680BC704700BFF3
:100B6C0000E100E000ED00E080B489B000AFF86077
:100B7C00B9607A60FB6803F00703FB61FB69C3F1A2
:100B8C000703042B28BF0423BB61FB690433062B2A
:100B9C0002D9FB69033B00E000237B614FF0FF327D
:100BAC00BB6902FA03F3DA43BB681A407B699A40CB
:100BBC004FF0FF317B6901FA03F3D9437B680B409B
:100BCC00134318462437BD4680BC704780B582B0AD
:100BDC0000AF78607B68013BB3F1807F01D30123C8
:100BEC000FE00A4A7B68013B53600F214FF0FF3046
:100BFC00FFF790FF054B00229A60044B07221A6006
:100C0C00002318460837BD4680BD00BF10E000E049
:100C1C0080B582B000AF78607868FFF749FF00BFFD
:100C2C000837BD4680BD80B586B000AF0346B960BD
:100C3C007A60FB7300237B61FFF75EFF78617A6853
:100C4C00B9687869FFF790FF024697F90F301146A3
:100C5C001846FFF75FFF00BF1837BD4680BD80B553
:100C6C0082B000AF78607868FFF7B0FF0346184693
:100C7C000837BD4680BD000080B48BB000AF7860F3
:100C8C00396000237B6200233B6269E101227B6AAD
:100C9C0002FA03F3FB613B681B68FA691340BB6102
:100CAC00BA69FB699A4240F058813B685B689A4A82
:100CBC0093425ED0984A934275D8984A934258D042
:100CCC00964A93426FD8964A934252D0944A934292
:100CDC0069D8944A93424CD0924A934263D8924A30
:100CEC00934246D0904A93425DD8122B2AD8122BAD
:100CFC0059D801A252F823F07F0D0008590D0008B5
:100D0C006B0D0008AD0D0008B30D0008B30D000805
:100D1C00B30D0008B30D0008B30D0008B30D0008A7
:100D2C00B30D0008B30D0008B30D0008B30D000897
:100D3C00B30D0008B30D0008B30D0008610D0008D9
:100D4C00750D0008794A934213D02CE03B68DB68A0
:100D5C003B6229E03B68DB6804333B6224E03B6880
:100D6C00DB6808333B621FE03B68DB680C333B629B
:100D7C001AE03B689B68002B02D104233B6213E012
:100D8C003B689B68012B05D108233B627B68FA69A1
:100D9C001A6109E008233B627B68FA695A6103E037
:100DAC0000233B6200E000BFBB69FF2B01D87B68CE
:100DBC0001E07B6804337B61BB69FF2B02D87B6A43
:100DCC009B0002E07B6A083B9B003B617B691A68D5
:100DDC000F213B6901FA03F3DB431A40396A3B6983
:100DEC0001FA03F31A437B691A603B685B6803F0F2
:100DFC008053002B00F0B1804D4B9B694C4A43F063
:100E0C00010393614A4B9B6903F00103BB60BB6810
:100E1C00484A7B6A9B08023352F82330FB607B6A9A
:100E2C0003F003039B000F2202FA03F3DB43FA687F
:100E3C001340FB607B68404A934213D07B683F4A67
:100E4C0093420DD07B683E4A934207D07B683D4A63
:100E5C00934201D1032306E0042304E0022302E0C1
:100E6C00012300E000237A6A02F00302920093400F
:100E7C00FA681343FB602F497B6A9B080233FA68BC
:100E8C0041F823203B685B6803F48013002B06D0E9
:100E9C002D4B9A682C49BB6913438B6006E02A4B97
:100EAC009A68BB69DB43284913408B603B685B68DD
:100EBC0003F40013002B06D0234BDA682249BB69DC
:100ECC001343CB6006E0204BDA68BB69DB431E4959
:100EDC001340CB603B685B6803F40033002B06D0F7
:100EEC00194B5A681849BB6913434B6006E0164B03
:100EFC005A68BB69DB43144913404B603B685B6821
:100F0C0003F48033002B21D00F4B1A680E49BB69B8
:100F1C0013430B6021E000BF0000321000003110C1
:100F2C00000022100000211000001210000011100F
:100F3C00001002400000014000080140000C01407C
:100F4C000010014000140140000401400B4B1A68D2
:100F5C00BB69DB43094913400B607B6A01337B623D
:100F6C003B681A687B6A22FA03F3002B7FF48EAE7F
:100F7C0000BF00BF2C37BD4680BC70470004014049
:100F8C0080B483B000AF78600B467B8013467B70D7
:100F9C007B78002B03D07A887B681A6103E07B880E
:100FAC001A047B681A6100BF0C37BD4680BC7047C1
:100FBC0080B586B000AF78607B68002B01D101232F
:100FCC0072E27B681B6803F00103002B00F0878042
:100FDC00924B5B6803F00C03042B0CD08F4B5B68BB
:100FEC0003F00C03082B12D18C4B5B6803F4803399
:100FFC00B3F5803F0BD1894B1B6803F40033002BF6
:10100C006CD07B685B68002B68D101234CE27B6859
:10101C005B68B3F5803F06D1804B1B687F4A43F475
:10102C00803313602EE07B685B68002B0CD17B4B0C
:10103C001B687A4A23F480331360784B1B68774A19
:10104C0023F4802313601DE07B685B68B3F5A02F4D
:10105C000CD1724B1B68714A43F4802313606F4BA5
:10106C001B686E4A43F4803313600BE06B4B1B68B8
:10107C006A4A23F480331360684B1B68674A23F475
:10108C00802313607B685B68002B13D0FFF7E2FCB6
:10109C00386108E0FFF7DEFC02463B69D31A642B8B
:1010AC0001D9032300E25D4B1B6803F40033002BD2
:1010BC00F0D014E0FFF7CEFC386108E0FFF7CAFC73
:1010CC0002463B69D31A642B01D90323ECE1534B41
:1010DC001B6803F40033002BF0D100E000BF7B68E9
:1010EC001B6803F00203002B63D04C4B5B6803F0CE
:1010FC000C03002B0BD0494B5B6803F00C03082B43
:10110C001CD1464B5B6803F48033002B16D1434B48
:10111C001B6803F00203002B05D07B681B69012BB5
:10112C0001D00123C0E13D4B1B6823F0F8027B6822
:10113C005B69DB00394913430B603AE07B681B6940
:10114C00002B20D0364B01221A60FFF783FC38614C
:10115C0008E0FFF77FFC02463B69D31A022B01D94A
:10116C000323A1E12D4B1B6803F00203002BF0D0ED
:10117C002A4B1B6823F0F8027B685B69DB0027496C
:10118C0013430B6015E0264B00221A60FFF762FC3C
:10119C00386108E0FFF75EFC02463B69D31A022B6C
:1011AC0001D9032380E11D4B1B6803F00203002BC4
:1011BC00F0D17B681B6803F00803002B3AD07B68E6
:1011CC009B69002B19D0174B01221A60FFF742FCC8
:1011DC00386108E0FFF73EFC02463B69D31A022B4C
:1011EC0001D9032360E10D4B5B6A03F00203002B72
:1011FC00F0D0012000F09CFA1CE00A4B00221A608F
:10120C00FFF728FC38610FE0FFF724FC02463B692E
:10121C00D31A022B08D9032346E100BF0010024069
:10122C000000424280044242924B5B6A03F002038C
:10123C00002BE9D17B681B6803F00403002B00F042
:10124C00A6800023FB758B4BDB6903F08053002BCE
:10125C000DD1884BDB69874A43F08053D361854BB2
:10126C00DB6903F08053BB60BB680123FB75824BC9
:10127C001B6803F48073002B18D17F4B1B687E4ACC
:10128C0043F480731360FFF7E5FB386108E0FFF768
:10129C00E1FB02463B69D31A642B01D9032303E11A
:1012AC00754B1B6803F48073002BF0D07B68DB68F4
:1012BC00012B06D16F4B1B6A6E4A43F0010313627C
:1012CC002DE07B68DB68002B0CD16A4B1B6A694AEA
:1012DC0023F001031362674B1B6A664A23F0040375
:1012EC0013621CE07B68DB68052B0CD1614B1B6A1D
:1012FC00604A43F0040313625E4B1B6A5D4A43F081
:10130C00010313620BE05B4B1B6A5A4A23F0010387
:10131C001362584B1B6A574A23F0040313627B6811
:10132C00DB68002B15D0FFF795FB38610AE0FFF75F
:10133C0091FB02463B69D31A41F28832934201D9A0
:10134C000323B1E04B4B1B6A03F00203002BEED0DE
:10135C0014E0FFF77FFB38610AE0FFF77BFB0246E6
:10136C003B69D31A41F28832934201D903239BE0A3
:10137C00404B1B6A03F00203002BEED1FB7D012BCB
:10138C0005D13C4BDB693B4A23F08053D3617B682E
:10139C00DB69002B00F08780364B5B6803F00C0395
:1013AC00082B61D07B68DB69022B46D1334B0022C2
:1013BC001A60FFF74FFB386108E0FFF74BFB024662
:1013CC003B69D31A022B01D903236DE0294B1B680F
:1013DC0003F00073002BF0D17B681B6AB3F5803FE0
:1013EC0008D1244B5B6823F400327B689B6821494D
:1013FC0013434B601F4B5B6823F474127B68196AB0
:10140C007B685B6A0B431B4913434B601B4B0122EC
:10141C001A60FFF71FFB386108E0FFF71BFB024661
:10142C003B69D31A022B01D903233DE0114B1B68F6
:10143C0003F00073002BF0D035E0104B00221A6043
:10144C00FFF708FB386108E0FFF704FB02463B6935
:10145C00D31A022B01D9032326E0064B1B6803F099
:10146C000073002BF0D11EE07B68DB69012B07D1E8
:10147C00012319E00010024000700040600042425D
:10148C000B4B5B68FB60FB6803F480327B681B6A68
:10149C009A4206D1FB6803F470127B685B6A9A422D
:1014AC0001D0012300E0002318461837BD4680BD4B
:1014BC000010024080B584B000AF786039607B6862
:1014CC00002B01D10123D0E06A4B1B6803F007030A
:1014DC003A689A4210D9674B1B6823F0070265499A
:1014EC003B6813430B60634B1B6803F007033A68BC
:1014FC009A4201D00123B8E07B681B6803F0020319
:10150C00002B20D07B681B6803F00403002B05D054
:10151C00594B5B68584A43F4E06353607B681B6823
:10152C0003F00803002B05D0534B5B68524A43F47D
:10153C0060535360504B5B6823F0F0027B689B68F0
:10154C004D4913434B607B681B6803F00103002B70
:10155C0040D07B685B68012B07D1474B1B6803F4B9
:10156C000033002B15D101237FE07B685B68022BD5
:10157C0007D1414B1B6803F00073002B09D10123E9
:10158C0073E03D4B1B6803F00203002B01D10123D8
:10159C006BE0394B5B6823F003027B685B68364970
:1015AC0013434B60FFF756FAF8600AE0FFF752FA64
:1015BC000246FB68D31A41F28832934201D90323C5
:1015CC0053E02D4B5B6803F00C027B685B689B005F
:1015DC009A42EBD1274B1B6803F007033A689A42F7
:1015EC0010D2244B1B6823F0070222493B6813439B
:1015FC000B60204B1B6803F007033A689A4201D03A
:10160C00012332E07B681B6803F00403002B08D035
:10161C00194B5B6823F4E0627B68DB681649134363
:10162C004B607B681B6803F00803002B09D0124B3E
:10163C005B6823F460527B681B69DB000E49134323
:10164C004B6000F021F802460B4B5B681B0903F062
:10165C000F030A49CB5C22FA03F3094A1360094BC6
:10166C001B681846FFF7B4F9002318461037BD461F
:10167C0080BD00BF0020024000100240241D000865
:10168C00000000200400002080B487B000AF0023CD
:10169C00FB600023BB6000237B6100237B60002385
:1016AC003B611E4B5B68FB60FB6803F00C03042B77
:1016BC0002D0082B03D027E0194B3B6127E0FB68D5
:1016CC009B0C03F00F03174AD35C7B60FB6803F49D
:1016DC008033002B10D0114B5B685B0C03F00103C3
:1016EC00114AD35CBB607B680D4A03FB02F2BB68FA
:1016FC00B2FBF3F37B6104E07B680C4A02FB03F35F
:10170C007B617B693B6102E0054B3B6100BF3B6940
:10171C0018461C37BD4680BC704700BF0010024005
:10172C0000127A00341D0008441D000800093D0019
:10173C0080B485B000AF78600A4B1B680A4AA2FBE4
:10174C0003235B0A7A6802FB03F3FB6000BFFB68B0
:10175C005A1EFA60002BF9D100BF00BF1437BD46EA
:10176C0080BC704700000020D34D621080B400AFE5
:10177C00094BDB68084A43F08073D360074B0022A7
:10178C005A60064B1B68054A43F00103136000BF07
:10179C00BD4680BC704700BFF0ED00E0001000E0DB
:1017AC0080B485B000AF78600D4B1B680D4AA2FB6E
:1017BC0003239A0C7B6802FB03F3FB600A4B5B6808
:1017CC00BB6000BF084B5A68BB68D31AFA689A42D0
:1017DC00F8D800BF00BF1437BD4680BC704700BFAF
:1017EC000000002083DE1B43001000E080B582B0B7
:1017FC0000AF78607B68186C7B68B3F844300122CA
:10180C001946FFF7BDFB0120FFF7CAFF7B68186C78
:10181C007B68B3F8443000221946FFF7B1FB28204F
:10182C00FFF7BEFF00BF0837BD4680BD80B584B052
:10183C0000AF78600B46FB700023FB7318E0FB7B5A
:10184C001A1D7B6853F83200FB7B04337A68DB008B
:10185C0013449988FA78FB7B42FA03F3DBB203F06A
:10186C000103DBB21A46FFF78BFBFB7B0133FB73E7
:10187C00FB7B032BE3D97868FFF7B8FF00BF103769
:10188C00BD4680BD80B584B000AF78600B46FB7060
:10189C000023FB7316E0FA7B7B6853F83200FB7B6A
:1018AC007A68DB0013449988FA78FB7B42FA03F3DD
:1018BC00DBB203F00103DBB21A46FFF761FBFB7BE3
:1018CC000133FB73FB7B072BE5D97868FFF78EFFA1
:1018DC0000BF1037BD4680BD80B582B000AF7860C8
:1018EC000B46FB707B6893F85830002B0FD1FB78BC
:1018FC001B09DBB219467868FFF798FFFB7803F0F9
:10190C000F03DBB219467868FFF790FF09E07B689C
:10191C0093F85830012B04D1FB7819467868FFF7FF
:10192C00B1FFFB78022B02D0FB78012B02D10220F5
:10193C00FFF79AF800BF0837BD4680BD80B582B06E
:10194C0000AF78600B46FB707B68986C7B68B3F8D3
:10195C004C3001221946FFF713FB7B68186D7B682E
:10196C00B3F8543000221946FFF70AFBFB781946EE
:10197C007868FFF7B1FF00BF0837BD4680BD000097
:10198C0080B586B000AF7860396007F10C03002297
:10199C001A605A601A810023FB753B68002B06DA2B
:1019AC002D217868FFF7CAFF3B685B423B603A68C1
:1019BC001E4B83FB02139910D317C91A0B469B00BD
:1019CC000B445B00D11ACBB297F91710CAB2013293
:1019DC00D2B2FA753033DAB201F118033B4403F892
:1019EC000C2C3B68114A82FB03129210DB17D31AA2
:1019FC003B603B68002BDAD10FE097F91730DBB274
:101A0C00013BDBB2FB7597F9173018333B4413F8E5
:101A1C000C3C19467868FFF791FF97F91730002BAB
:101A2C00EBD100BF00BF1837BD4680BD6766666648
:101A3C0090B58BB000AFF860B9601346FB714FF0F6
:101A4C000001B868FEF728FE0346002B07D02D21B5
:101A5C00F868FFF773FFBB6883F00043BB6001239A
:101A6C007B62002387F823300CE07A6A13469B00D4
:101A7C0013445B007B6297F92330DBB20133DBB29A
:101A8C0087F8233097F92320FB799A42EDDB786AAB
:101A9C00FEF710FC034619464FF07C50FEF712FD82
:101AAC0003461946B868FEF751FB0346BB60B8689D
:101ABC00FEF740FE03467B617B691946F868FFF729
:101ACC005FFFFB79002B47D02E21F868FFF736FF1C
:101ADC007869FEF7EBFB03461946B868FEF734FB52
:101AEC0003461C46786AFEF7E5FB0346194620467A
:101AFC00FEF734FC03461846FEF7F6FD0346FB6181
:101B0C000023FB7622E07B6A154A82FB03129210BB
:101B1C00DB17D31A7B62FA697B6A92FBF3F3FB74D3
:101B2C00FB7C3033DBB21946F868FFF707FFFB6923
:101B3C007A6A93FBF2F2796A01FB02F29B1AFB615F
:101B4C0097F91B30DBB20133DBB2FB7697F91B2024
:101B5C00FB799A42D7DB00E000BF2C37BD4690BD25
:101B6C006766666680B582B000AF78600B46FB7026
:101B7C007B68986C7B68B3F84C3000221946FFF7F1
:101B8C00FFF97B68186D7B68B3F854300022194656
:101B9C00FFF7F6F9FB7819467868FFF79DFE00BF52
:101BAC000837BD4680BD80B582B000AF7860282074
:101BBC00FEF75AFF03217868FFF738FE0520FEF781
:101BCC0053FF03217868FFF731FE6420FFF7E8FD2F
:101BDC0003217868FFF72AFE02217868FFF726FEBA
:101BEC0028217868FFF7BEFF08217868FFF7BAFF55
:101BFC0001217868FFF7B6FF06217868FFF7B2FF7E
:101C0C000C217868FFF7AEFF00BF0837BD4680BDDA
:101C1C0080B582B000AF78602820FEF725FF302118
:101C2C007868FFF79FFF0520FEF71EFF30217868CC
:101C3C00FFF798FF6420FFF7B3FD30217868FFF7BA
:101C4C0091FF30217868FFF78DFF08217868FFF746
:101C5C0089FF01217868FFF785FF06217868FFF777
:101C6C0081FF0C217868FFF77DFF00BF0837BD4668
:101C7C0080BD80B582B000AF7860FFF777FD7B68E0
:101C8C0093F85830002B03D17868FFF78CFF07E0EE
:101C9C007B6893F85830012B02D17868FFF7B8FFB6
:101CAC0000BF0837BD4680BD03460244934200D1B5
:101CBC00704703F8011BF9E770B500260C4D0D4C6D
:101CCC00641BA410A64209D100F01AF800260A4D94
:101CDC000A4C641BA410A64205D170BD55F8043BF8
:101CEC0098470136EEE755F8043B98470136F2E782
:101CFC00481D0008481D0008481D00084C1D000820
:101D0C00F8B500BFF8BC08BC9E467047F8B500BFDC
:081D1C00F8BC08BC9E467047AC
:101D24000000000000000000010203040607080987
:101D340002030405060708090A0B0C0D0E0F101008
:041D44000102000098
:041D4800310100085D
:041D4C000D0100087D
:101D500000127A00100000000100000000000000E6
:101D60000000000000000000000000000000000073
:101D7000000000000000000000000000000801401A
:101D80001000000000080140200000000008014091
:101D900040000000000801408000000000080140F1
:101DA0000800000000080140040000000008014095
:081DB000020000000000000029
:040000050800096581
:00000001FF
